{
	"contracts/MyContract.sol": {
		"MyContract": {
			"abi": [
				{
					"inputs": [],
					"stateMutability": "nonpayable",
					"type": "constructor"
				},
				{
					"inputs": [],
					"name": "checkIsOwner",
					"outputs": [
						{
							"internalType": "bool",
							"name": "",
							"type": "bool"
						}
					],
					"stateMutability": "view",
					"type": "function"
				},
				{
					"inputs": [],
					"name": "countEvenNumber",
					"outputs": [
						{
							"internalType": "uint256",
							"name": "",
							"type": "uint256"
						}
					],
					"stateMutability": "view",
					"type": "function"
				},
				{
					"inputs": [
						{
							"internalType": "uint256",
							"name": "_number",
							"type": "uint256"
						}
					],
					"name": "isEvenNumber",
					"outputs": [
						{
							"internalType": "bool",
							"name": "",
							"type": "bool"
						}
					],
					"stateMutability": "pure",
					"type": "function"
				},
				{
					"inputs": [
						{
							"internalType": "uint256",
							"name": "",
							"type": "uint256"
						}
					],
					"name": "numbers",
					"outputs": [
						{
							"internalType": "uint256",
							"name": "",
							"type": "uint256"
						}
					],
					"stateMutability": "view",
					"type": "function"
				}
			],
			"devdoc": {
				"kind": "dev",
				"methods": {},
				"version": 1
			},
			"evm": {
				"assembly": "    /* \"contracts/MyContract.sol\":58:857  contract MyContract{... */\n  mstore(0x40, 0x80)\n    /* \"contracts/MyContract.sol\":116:174  uint256[] public numbers = [1, 2, 3, 4, 5, 6, 7, 8, 9, 10] */\n  mload(0x40)\n  dup1\n  0x0140\n  add\n  0x40\n  mstore\n  dup1\n    /* \"contracts/MyContract.sol\":144:145  1 */\n  0x01\n    /* \"contracts/MyContract.sol\":116:174  uint256[] public numbers = [1, 2, 3, 4, 5, 6, 7, 8, 9, 10] */\n  0xff\n  and\n  dup2\n  mstore\n  0x20\n  add\n    /* \"contracts/MyContract.sol\":147:148  2 */\n  0x02\n    /* \"contracts/MyContract.sol\":116:174  uint256[] public numbers = [1, 2, 3, 4, 5, 6, 7, 8, 9, 10] */\n  0xff\n  and\n  dup2\n  mstore\n  0x20\n  add\n    /* \"contracts/MyContract.sol\":150:151  3 */\n  0x03\n    /* \"contracts/MyContract.sol\":116:174  uint256[] public numbers = [1, 2, 3, 4, 5, 6, 7, 8, 9, 10] */\n  0xff\n  and\n  dup2\n  mstore\n  0x20\n  add\n    /* \"contracts/MyContract.sol\":153:154  4 */\n  0x04\n    /* \"contracts/MyContract.sol\":116:174  uint256[] public numbers = [1, 2, 3, 4, 5, 6, 7, 8, 9, 10] */\n  0xff\n  and\n  dup2\n  mstore\n  0x20\n  add\n    /* \"contracts/MyContract.sol\":156:157  5 */\n  0x05\n    /* \"contracts/MyContract.sol\":116:174  uint256[] public numbers = [1, 2, 3, 4, 5, 6, 7, 8, 9, 10] */\n  0xff\n  and\n  dup2\n  mstore\n  0x20\n  add\n    /* \"contracts/MyContract.sol\":159:160  6 */\n  0x06\n    /* \"contracts/MyContract.sol\":116:174  uint256[] public numbers = [1, 2, 3, 4, 5, 6, 7, 8, 9, 10] */\n  0xff\n  and\n  dup2\n  mstore\n  0x20\n  add\n    /* \"contracts/MyContract.sol\":162:163  7 */\n  0x07\n    /* \"contracts/MyContract.sol\":116:174  uint256[] public numbers = [1, 2, 3, 4, 5, 6, 7, 8, 9, 10] */\n  0xff\n  and\n  dup2\n  mstore\n  0x20\n  add\n    /* \"contracts/MyContract.sol\":165:166  8 */\n  0x08\n    /* \"contracts/MyContract.sol\":116:174  uint256[] public numbers = [1, 2, 3, 4, 5, 6, 7, 8, 9, 10] */\n  0xff\n  and\n  dup2\n  mstore\n  0x20\n  add\n    /* \"contracts/MyContract.sol\":168:169  9 */\n  0x09\n    /* \"contracts/MyContract.sol\":116:174  uint256[] public numbers = [1, 2, 3, 4, 5, 6, 7, 8, 9, 10] */\n  0xff\n  and\n  dup2\n  mstore\n  0x20\n  add\n    /* \"contracts/MyContract.sol\":171:173  10 */\n  0x0a\n    /* \"contracts/MyContract.sol\":116:174  uint256[] public numbers = [1, 2, 3, 4, 5, 6, 7, 8, 9, 10] */\n  0xff\n  and\n  dup2\n  mstore\n  pop\n  0x00\n  swap1\n  0x0a\n  tag_1\n  swap3\n  swap2\n  swap1\n  tag_2\n  jump\t// in\ntag_1:\n  pop\n    /* \"contracts/MyContract.sol\":200:248  constructor(){... */\n  callvalue\n  dup1\n  iszero\n  tag_3\n  jumpi\n  0x00\n  dup1\n  revert\ntag_3:\n  pop\n    /* \"contracts/MyContract.sol\":231:241  msg.sender */\n  caller\n    /* \"contracts/MyContract.sol\":223:228  owner */\n  0x01\n  0x00\n    /* \"contracts/MyContract.sol\":223:241  owner = msg.sender */\n  0x0100\n  exp\n  dup2\n  sload\n  dup2\n  0xffffffffffffffffffffffffffffffffffffffff\n  mul\n  not\n  and\n  swap1\n  dup4\n  0xffffffffffffffffffffffffffffffffffffffff\n  and\n  mul\n  or\n  swap1\n  sstore\n  pop\n    /* \"contracts/MyContract.sol\":58:857  contract MyContract{... */\n  jump(tag_6)\ntag_2:\n  dup3\n  dup1\n  sload\n  dup3\n  dup3\n  sstore\n  swap1\n  0x00\n  mstore\n  keccak256(0x00, 0x20)\n  swap1\n  dup2\n  add\n  swap3\n  dup3\n  iszero\n  tag_7\n  jumpi\n  swap2\n  0x20\n  mul\n  dup3\n  add\ntag_8:\n  dup3\n  dup2\n  gt\n  iszero\n  tag_9\n  jumpi\n  dup3\n  mload\n  dup3\n  swap1\n  0xff\n  and\n  swap1\n  sstore\n  swap2\n  0x20\n  add\n  swap2\n  swap1\n  0x01\n  add\n  swap1\n  jump(tag_8)\ntag_9:\ntag_7:\n  pop\n  swap1\n  pop\n  tag_10\n  swap2\n  swap1\n  tag_11\n  jump\t// in\ntag_10:\n  pop\n  swap1\n  jump\t// out\ntag_11:\ntag_12:\n  dup1\n  dup3\n  gt\n  iszero\n  tag_13\n  jumpi\n  0x00\n  dup2\n  0x00\n  swap1\n  sstore\n  pop\n  0x01\n  add\n  jump(tag_12)\ntag_13:\n  pop\n  swap1\n  jump\t// out\ntag_6:\n  dataSize(sub_0)\n  dup1\n  dataOffset(sub_0)\n  0x00\n  codecopy\n  0x00\n  return\nstop\n\nsub_0: assembly {\n        /* \"contracts/MyContract.sol\":58:857  contract MyContract{... */\n      mstore(0x40, 0x80)\n      callvalue\n      dup1\n      iszero\n      tag_1\n      jumpi\n      0x00\n      dup1\n      revert\n    tag_1:\n      pop\n      jumpi(tag_2, lt(calldatasize, 0x04))\n      shr(0xe0, calldataload(0x00))\n      dup1\n      0x9dcccf04\n      eq\n      tag_3\n      jumpi\n      dup1\n      0xd39fa233\n      eq\n      tag_4\n      jumpi\n      dup1\n      0xd82ff142\n      eq\n      tag_5\n      jumpi\n      dup1\n      0xe5054c69\n      eq\n      tag_6\n      jumpi\n    tag_2:\n      0x00\n      dup1\n      revert\n        /* \"contracts/MyContract.sol\":254:502  function countEvenNumber() public view returns(uint){... */\n    tag_3:\n      tag_7\n      tag_8\n      jump\t// in\n    tag_7:\n      mload(0x40)\n      tag_9\n      swap2\n      swap1\n      tag_10\n      jump\t// in\n    tag_9:\n      mload(0x40)\n      dup1\n      swap2\n      sub\n      swap1\n      return\n        /* \"contracts/MyContract.sol\":116:174  uint256[] public numbers = [1, 2, 3, 4, 5, 6, 7, 8, 9, 10] */\n    tag_4:\n      tag_11\n      0x04\n      dup1\n      calldatasize\n      sub\n      dup2\n      add\n      swap1\n      tag_12\n      swap2\n      swap1\n      tag_13\n      jump\t// in\n    tag_12:\n      tag_14\n      jump\t// in\n    tag_11:\n      mload(0x40)\n      tag_15\n      swap2\n      swap1\n      tag_10\n      jump\t// in\n    tag_15:\n      mload(0x40)\n      dup1\n      swap2\n      sub\n      swap1\n      return\n        /* \"contracts/MyContract.sol\":689:855  function checkIsOwner() public view returns (bool){... */\n    tag_5:\n      tag_16\n      tag_17\n      jump\t// in\n    tag_16:\n      mload(0x40)\n      tag_18\n      swap2\n      swap1\n      tag_19\n      jump\t// in\n    tag_18:\n      mload(0x40)\n      dup1\n      swap2\n      sub\n      swap1\n      return\n        /* \"contracts/MyContract.sol\":508:683  function isEvenNumber(uint _number) public pure returns (bool){... */\n    tag_6:\n      tag_20\n      0x04\n      dup1\n      calldatasize\n      sub\n      dup2\n      add\n      swap1\n      tag_21\n      swap2\n      swap1\n      tag_13\n      jump\t// in\n    tag_21:\n      tag_22\n      jump\t// in\n    tag_20:\n      mload(0x40)\n      tag_23\n      swap2\n      swap1\n      tag_19\n      jump\t// in\n    tag_23:\n      mload(0x40)\n      dup1\n      swap2\n      sub\n      swap1\n      return\n        /* \"contracts/MyContract.sol\":254:502  function countEvenNumber() public view returns(uint){... */\n    tag_8:\n        /* \"contracts/MyContract.sol\":301:305  uint */\n      0x00\n        /* \"contracts/MyContract.sol\":316:326  uint count */\n      dup1\n        /* \"contracts/MyContract.sol\":329:330  0 */\n      0x00\n        /* \"contracts/MyContract.sol\":316:330  uint count = 0 */\n      swap1\n      pop\n        /* \"contracts/MyContract.sol\":345:351  uint i */\n      0x00\n        /* \"contracts/MyContract.sol\":341:473  for(uint i = 0; i < numbers.length; i++){... */\n    tag_25:\n        /* \"contracts/MyContract.sol\":361:368  numbers */\n      0x00\n        /* \"contracts/MyContract.sol\":361:375  numbers.length */\n      dup1\n      sload\n      swap1\n      pop\n        /* \"contracts/MyContract.sol\":357:358  i */\n      dup2\n        /* \"contracts/MyContract.sol\":357:375  i < numbers.length */\n      lt\n        /* \"contracts/MyContract.sol\":341:473  for(uint i = 0; i < numbers.length; i++){... */\n      iszero\n      tag_26\n      jumpi\n        /* \"contracts/MyContract.sol\":398:422  isEvenNumber(numbers[i]) */\n      tag_28\n        /* \"contracts/MyContract.sol\":411:418  numbers */\n      0x00\n        /* \"contracts/MyContract.sol\":419:420  i */\n      dup3\n        /* \"contracts/MyContract.sol\":411:421  numbers[i] */\n      dup2\n      sload\n      dup2\n      lt\n      tag_29\n      jumpi\n      tag_30\n      tag_31\n      jump\t// in\n    tag_30:\n    tag_29:\n      swap1\n      0x00\n      mstore\n      keccak256(0x00, 0x20)\n      add\n      sload\n        /* \"contracts/MyContract.sol\":398:410  isEvenNumber */\n      tag_22\n        /* \"contracts/MyContract.sol\":398:422  isEvenNumber(numbers[i]) */\n      jump\t// in\n    tag_28:\n        /* \"contracts/MyContract.sol\":395:463  if(isEvenNumber(numbers[i])){... */\n      iszero\n      tag_33\n      jumpi\n        /* \"contracts/MyContract.sol\":441:448  count++ */\n      dup2\n      dup1\n      tag_34\n      swap1\n      tag_35\n      jump\t// in\n    tag_34:\n      swap3\n      pop\n      pop\n        /* \"contracts/MyContract.sol\":395:463  if(isEvenNumber(numbers[i])){... */\n    tag_33:\n        /* \"contracts/MyContract.sol\":377:380  i++ */\n      dup1\n      dup1\n      0x01\n      add\n      swap2\n      pop\n      pop\n        /* \"contracts/MyContract.sol\":341:473  for(uint i = 0; i < numbers.length; i++){... */\n      jump(tag_25)\n    tag_26:\n      pop\n        /* \"contracts/MyContract.sol\":490:495  count */\n      dup1\n        /* \"contracts/MyContract.sol\":483:495  return count */\n      swap2\n      pop\n      pop\n        /* \"contracts/MyContract.sol\":254:502  function countEvenNumber() public view returns(uint){... */\n      swap1\n      jump\t// out\n        /* \"contracts/MyContract.sol\":116:174  uint256[] public numbers = [1, 2, 3, 4, 5, 6, 7, 8, 9, 10] */\n    tag_14:\n      0x00\n      dup2\n      dup2\n      sload\n      dup2\n      lt\n      tag_36\n      jumpi\n      0x00\n      dup1\n      revert\n    tag_36:\n      swap1\n      0x00\n      mstore\n      keccak256(0x00, 0x20)\n      add\n      0x00\n      swap2\n      pop\n      swap1\n      pop\n      sload\n      dup2\n      jump\t// out\n        /* \"contracts/MyContract.sol\":689:855  function checkIsOwner() public view returns (bool){... */\n    tag_17:\n        /* \"contracts/MyContract.sol\":734:738  bool */\n      0x00\n        /* \"contracts/MyContract.sol\":766:771  owner */\n      0x01\n      0x00\n      swap1\n      sload\n      swap1\n      0x0100\n      exp\n      swap1\n      div\n      0xffffffffffffffffffffffffffffffffffffffff\n      and\n        /* \"contracts/MyContract.sol\":752:771  msg.sender == owner */\n      0xffffffffffffffffffffffffffffffffffffffff\n      and\n        /* \"contracts/MyContract.sol\":752:762  msg.sender */\n      caller\n        /* \"contracts/MyContract.sol\":752:771  msg.sender == owner */\n      0xffffffffffffffffffffffffffffffffffffffff\n      and\n      sub\n        /* \"contracts/MyContract.sol\":749:849  if(msg.sender == owner){... */\n      tag_39\n      jumpi\n        /* \"contracts/MyContract.sol\":793:797  true */\n      0x01\n        /* \"contracts/MyContract.sol\":786:797  return true */\n      swap1\n      pop\n      jump(tag_38)\n        /* \"contracts/MyContract.sol\":749:849  if(msg.sender == owner){... */\n    tag_39:\n        /* \"contracts/MyContract.sol\":833:838  false */\n      0x00\n        /* \"contracts/MyContract.sol\":826:838  return false */\n      swap1\n      pop\n        /* \"contracts/MyContract.sol\":689:855  function checkIsOwner() public view returns (bool){... */\n    tag_38:\n      swap1\n      jump\t// out\n        /* \"contracts/MyContract.sol\":508:683  function isEvenNumber(uint _number) public pure returns (bool){... */\n    tag_22:\n        /* \"contracts/MyContract.sol\":565:569  bool */\n      0x00\n        /* \"contracts/MyContract.sol\":598:599  0 */\n      dup1\n        /* \"contracts/MyContract.sol\":593:594  2 */\n      0x02\n        /* \"contracts/MyContract.sol\":583:590  _number */\n      dup4\n        /* \"contracts/MyContract.sol\":583:594  _number % 2 */\n      tag_42\n      swap2\n      swap1\n      tag_43\n      jump\t// in\n    tag_42:\n        /* \"contracts/MyContract.sol\":583:599  _number % 2 == 0 */\n      sub\n        /* \"contracts/MyContract.sol\":580:677  if(_number % 2 == 0){... */\n      tag_44\n      jumpi\n        /* \"contracts/MyContract.sol\":621:625  true */\n      0x01\n        /* \"contracts/MyContract.sol\":614:625  return true */\n      swap1\n      pop\n      jump(tag_41)\n        /* \"contracts/MyContract.sol\":580:677  if(_number % 2 == 0){... */\n    tag_44:\n        /* \"contracts/MyContract.sol\":661:666  false */\n      0x00\n        /* \"contracts/MyContract.sol\":654:666  return false */\n      swap1\n      pop\n        /* \"contracts/MyContract.sol\":508:683  function isEvenNumber(uint _number) public pure returns (bool){... */\n    tag_41:\n      swap2\n      swap1\n      pop\n      jump\t// out\n        /* \"#utility.yul\":7:84   */\n    tag_46:\n        /* \"#utility.yul\":44:51   */\n      0x00\n        /* \"#utility.yul\":73:78   */\n      dup2\n        /* \"#utility.yul\":62:78   */\n      swap1\n      pop\n        /* \"#utility.yul\":7:84   */\n      swap2\n      swap1\n      pop\n      jump\t// out\n        /* \"#utility.yul\":90:208   */\n    tag_47:\n        /* \"#utility.yul\":177:201   */\n      tag_60\n        /* \"#utility.yul\":195:200   */\n      dup2\n        /* \"#utility.yul\":177:201   */\n      tag_46\n      jump\t// in\n    tag_60:\n        /* \"#utility.yul\":172:175   */\n      dup3\n        /* \"#utility.yul\":165:202   */\n      mstore\n        /* \"#utility.yul\":90:208   */\n      pop\n      pop\n      jump\t// out\n        /* \"#utility.yul\":214:436   */\n    tag_10:\n        /* \"#utility.yul\":307:311   */\n      0x00\n        /* \"#utility.yul\":345:347   */\n      0x20\n        /* \"#utility.yul\":334:343   */\n      dup3\n        /* \"#utility.yul\":330:348   */\n      add\n        /* \"#utility.yul\":322:348   */\n      swap1\n      pop\n        /* \"#utility.yul\":358:429   */\n      tag_62\n        /* \"#utility.yul\":426:427   */\n      0x00\n        /* \"#utility.yul\":415:424   */\n      dup4\n        /* \"#utility.yul\":411:428   */\n      add\n        /* \"#utility.yul\":402:408   */\n      dup5\n        /* \"#utility.yul\":358:429   */\n      tag_47\n      jump\t// in\n    tag_62:\n        /* \"#utility.yul\":214:436   */\n      swap3\n      swap2\n      pop\n      pop\n      jump\t// out\n        /* \"#utility.yul\":523:640   */\n    tag_49:\n        /* \"#utility.yul\":632:633   */\n      0x00\n        /* \"#utility.yul\":629:630   */\n      dup1\n        /* \"#utility.yul\":622:634   */\n      revert\n        /* \"#utility.yul\":769:891   */\n    tag_51:\n        /* \"#utility.yul\":842:866   */\n      tag_67\n        /* \"#utility.yul\":860:865   */\n      dup2\n        /* \"#utility.yul\":842:866   */\n      tag_46\n      jump\t// in\n    tag_67:\n        /* \"#utility.yul\":835:840   */\n      dup2\n        /* \"#utility.yul\":832:867   */\n      eq\n        /* \"#utility.yul\":822:885   */\n      tag_68\n      jumpi\n        /* \"#utility.yul\":881:882   */\n      0x00\n        /* \"#utility.yul\":878:879   */\n      dup1\n        /* \"#utility.yul\":871:883   */\n      revert\n        /* \"#utility.yul\":822:885   */\n    tag_68:\n        /* \"#utility.yul\":769:891   */\n      pop\n      jump\t// out\n        /* \"#utility.yul\":897:1036   */\n    tag_52:\n        /* \"#utility.yul\":943:948   */\n      0x00\n        /* \"#utility.yul\":981:987   */\n      dup2\n        /* \"#utility.yul\":968:988   */\n      calldataload\n        /* \"#utility.yul\":959:988   */\n      swap1\n      pop\n        /* \"#utility.yul\":997:1030   */\n      tag_70\n        /* \"#utility.yul\":1024:1029   */\n      dup2\n        /* \"#utility.yul\":997:1030   */\n      tag_51\n      jump\t// in\n    tag_70:\n        /* \"#utility.yul\":897:1036   */\n      swap3\n      swap2\n      pop\n      pop\n      jump\t// out\n        /* \"#utility.yul\":1042:1371   */\n    tag_13:\n        /* \"#utility.yul\":1101:1107   */\n      0x00\n        /* \"#utility.yul\":1150:1152   */\n      0x20\n        /* \"#utility.yul\":1138:1147   */\n      dup3\n        /* \"#utility.yul\":1129:1136   */\n      dup5\n        /* \"#utility.yul\":1125:1148   */\n      sub\n        /* \"#utility.yul\":1121:1153   */\n      slt\n        /* \"#utility.yul\":1118:1237   */\n      iszero\n      tag_72\n      jumpi\n        /* \"#utility.yul\":1156:1235   */\n      tag_73\n      tag_49\n      jump\t// in\n    tag_73:\n        /* \"#utility.yul\":1118:1237   */\n    tag_72:\n        /* \"#utility.yul\":1276:1277   */\n      0x00\n        /* \"#utility.yul\":1301:1354   */\n      tag_74\n        /* \"#utility.yul\":1346:1353   */\n      dup5\n        /* \"#utility.yul\":1337:1343   */\n      dup3\n        /* \"#utility.yul\":1326:1335   */\n      dup6\n        /* \"#utility.yul\":1322:1344   */\n      add\n        /* \"#utility.yul\":1301:1354   */\n      tag_52\n      jump\t// in\n    tag_74:\n        /* \"#utility.yul\":1291:1354   */\n      swap2\n      pop\n        /* \"#utility.yul\":1247:1364   */\n      pop\n        /* \"#utility.yul\":1042:1371   */\n      swap3\n      swap2\n      pop\n      pop\n      jump\t// out\n        /* \"#utility.yul\":1377:1467   */\n    tag_53:\n        /* \"#utility.yul\":1411:1418   */\n      0x00\n        /* \"#utility.yul\":1454:1459   */\n      dup2\n        /* \"#utility.yul\":1447:1460   */\n      iszero\n        /* \"#utility.yul\":1440:1461   */\n      iszero\n        /* \"#utility.yul\":1429:1461   */\n      swap1\n      pop\n        /* \"#utility.yul\":1377:1467   */\n      swap2\n      swap1\n      pop\n      jump\t// out\n        /* \"#utility.yul\":1473:1582   */\n    tag_54:\n        /* \"#utility.yul\":1554:1575   */\n      tag_77\n        /* \"#utility.yul\":1569:1574   */\n      dup2\n        /* \"#utility.yul\":1554:1575   */\n      tag_53\n      jump\t// in\n    tag_77:\n        /* \"#utility.yul\":1549:1552   */\n      dup3\n        /* \"#utility.yul\":1542:1576   */\n      mstore\n        /* \"#utility.yul\":1473:1582   */\n      pop\n      pop\n      jump\t// out\n        /* \"#utility.yul\":1588:1798   */\n    tag_19:\n        /* \"#utility.yul\":1675:1679   */\n      0x00\n        /* \"#utility.yul\":1713:1715   */\n      0x20\n        /* \"#utility.yul\":1702:1711   */\n      dup3\n        /* \"#utility.yul\":1698:1716   */\n      add\n        /* \"#utility.yul\":1690:1716   */\n      swap1\n      pop\n        /* \"#utility.yul\":1726:1791   */\n      tag_79\n        /* \"#utility.yul\":1788:1789   */\n      0x00\n        /* \"#utility.yul\":1777:1786   */\n      dup4\n        /* \"#utility.yul\":1773:1790   */\n      add\n        /* \"#utility.yul\":1764:1770   */\n      dup5\n        /* \"#utility.yul\":1726:1791   */\n      tag_54\n      jump\t// in\n    tag_79:\n        /* \"#utility.yul\":1588:1798   */\n      swap3\n      swap2\n      pop\n      pop\n      jump\t// out\n        /* \"#utility.yul\":1804:1984   */\n    tag_31:\n        /* \"#utility.yul\":1852:1929   */\n      0x4e487b7100000000000000000000000000000000000000000000000000000000\n        /* \"#utility.yul\":1849:1850   */\n      0x00\n        /* \"#utility.yul\":1842:1930   */\n      mstore\n        /* \"#utility.yul\":1949:1953   */\n      0x32\n        /* \"#utility.yul\":1946:1947   */\n      0x04\n        /* \"#utility.yul\":1939:1954   */\n      mstore\n        /* \"#utility.yul\":1973:1977   */\n      0x24\n        /* \"#utility.yul\":1970:1971   */\n      0x00\n        /* \"#utility.yul\":1963:1978   */\n      revert\n        /* \"#utility.yul\":1990:2170   */\n    tag_55:\n        /* \"#utility.yul\":2038:2115   */\n      0x4e487b7100000000000000000000000000000000000000000000000000000000\n        /* \"#utility.yul\":2035:2036   */\n      0x00\n        /* \"#utility.yul\":2028:2116   */\n      mstore\n        /* \"#utility.yul\":2135:2139   */\n      0x11\n        /* \"#utility.yul\":2132:2133   */\n      0x04\n        /* \"#utility.yul\":2125:2140   */\n      mstore\n        /* \"#utility.yul\":2159:2163   */\n      0x24\n        /* \"#utility.yul\":2156:2157   */\n      0x00\n        /* \"#utility.yul\":2149:2164   */\n      revert\n        /* \"#utility.yul\":2176:2409   */\n    tag_35:\n        /* \"#utility.yul\":2215:2218   */\n      0x00\n        /* \"#utility.yul\":2238:2262   */\n      tag_83\n        /* \"#utility.yul\":2256:2261   */\n      dup3\n        /* \"#utility.yul\":2238:2262   */\n      tag_46\n      jump\t// in\n    tag_83:\n        /* \"#utility.yul\":2229:2262   */\n      swap2\n      pop\n        /* \"#utility.yul\":2284:2350   */\n      0xffffffffffffffffffffffffffffffffffffffffffffffffffffffffffffffff\n        /* \"#utility.yul\":2277:2282   */\n      dup3\n        /* \"#utility.yul\":2274:2351   */\n      sub\n        /* \"#utility.yul\":2271:2374   */\n      tag_84\n      jumpi\n        /* \"#utility.yul\":2354:2372   */\n      tag_85\n      tag_55\n      jump\t// in\n    tag_85:\n        /* \"#utility.yul\":2271:2374   */\n    tag_84:\n        /* \"#utility.yul\":2401:2402   */\n      0x01\n        /* \"#utility.yul\":2394:2399   */\n      dup3\n        /* \"#utility.yul\":2390:2403   */\n      add\n        /* \"#utility.yul\":2383:2403   */\n      swap1\n      pop\n        /* \"#utility.yul\":2176:2409   */\n      swap2\n      swap1\n      pop\n      jump\t// out\n        /* \"#utility.yul\":2415:2595   */\n    tag_56:\n        /* \"#utility.yul\":2463:2540   */\n      0x4e487b7100000000000000000000000000000000000000000000000000000000\n        /* \"#utility.yul\":2460:2461   */\n      0x00\n        /* \"#utility.yul\":2453:2541   */\n      mstore\n        /* \"#utility.yul\":2560:2564   */\n      0x12\n        /* \"#utility.yul\":2557:2558   */\n      0x04\n        /* \"#utility.yul\":2550:2565   */\n      mstore\n        /* \"#utility.yul\":2584:2588   */\n      0x24\n        /* \"#utility.yul\":2581:2582   */\n      0x00\n        /* \"#utility.yul\":2574:2589   */\n      revert\n        /* \"#utility.yul\":2601:2777   */\n    tag_43:\n        /* \"#utility.yul\":2633:2634   */\n      0x00\n        /* \"#utility.yul\":2650:2670   */\n      tag_88\n        /* \"#utility.yul\":2668:2669   */\n      dup3\n        /* \"#utility.yul\":2650:2670   */\n      tag_46\n      jump\t// in\n    tag_88:\n        /* \"#utility.yul\":2645:2670   */\n      swap2\n      pop\n        /* \"#utility.yul\":2684:2704   */\n      tag_89\n        /* \"#utility.yul\":2702:2703   */\n      dup4\n        /* \"#utility.yul\":2684:2704   */\n      tag_46\n      jump\t// in\n    tag_89:\n        /* \"#utility.yul\":2679:2704   */\n      swap3\n      pop\n        /* \"#utility.yul\":2723:2724   */\n      dup3\n        /* \"#utility.yul\":2713:2748   */\n      tag_90\n      jumpi\n        /* \"#utility.yul\":2728:2746   */\n      tag_91\n      tag_56\n      jump\t// in\n    tag_91:\n        /* \"#utility.yul\":2713:2748   */\n    tag_90:\n        /* \"#utility.yul\":2769:2770   */\n      dup3\n        /* \"#utility.yul\":2766:2767   */\n      dup3\n        /* \"#utility.yul\":2762:2771   */\n      mod\n        /* \"#utility.yul\":2757:2771   */\n      swap1\n      pop\n        /* \"#utility.yul\":2601:2777   */\n      swap3\n      swap2\n      pop\n      pop\n      jump\t// out\n\n    auxdata: 0xa264697066735822122084c42f5ea3ea25de33abd84a8cd076b5d3b7f13c52c463962a186a7aaf21639b64736f6c634300081a0033\n}\n",
				"bytecode": {
					"linkReferences": {},
					"object": "6080604052604051806101400160405280600160ff168152602001600260ff168152602001600360ff168152602001600460ff168152602001600560ff168152602001600660ff168152602001600760ff168152602001600860ff168152602001600960ff168152602001600a60ff168152505f90600a6100819291906100d3565b5034801561008d575f80fd5b503360015f6101000a81548173ffffffffffffffffffffffffffffffffffffffff021916908373ffffffffffffffffffffffffffffffffffffffff16021790555061013e565b828054828255905f5260205f20908101928215610112579160200282015b82811115610111578251829060ff169055916020019190600101906100f1565b5b50905061011f9190610123565b5090565b5b8082111561013a575f815f905550600101610124565b5090565b6103e58061014b5f395ff3fe608060405234801561000f575f80fd5b506004361061004a575f3560e01c80639dcccf041461004e578063d39fa2331461006c578063d82ff1421461009c578063e5054c69146100ba575b5f80fd5b6100566100ea565b604051610063919061020c565b60405180910390f35b61008660048036038101906100819190610253565b61014a565b604051610093919061020c565b60405180910390f35b6100a4610169565b6040516100b19190610298565b60405180910390f35b6100d460048036038101906100cf9190610253565b6101ce565b6040516100e19190610298565b60405180910390f35b5f805f90505f5b5f80549050811015610142576101215f8281548110610113576101126102b1565b5b905f5260205f2001546101ce565b156101355781806101319061030b565b9250505b80806001019150506100f1565b508091505090565b5f8181548110610158575f80fd5b905f5260205f20015f915090505481565b5f60015f9054906101000a900473ffffffffffffffffffffffffffffffffffffffff1673ffffffffffffffffffffffffffffffffffffffff163373ffffffffffffffffffffffffffffffffffffffff16036101c757600190506101cb565b5f90505b90565b5f806002836101dd919061037f565b036101eb57600190506101ef565b5f90505b919050565b5f819050919050565b610206816101f4565b82525050565b5f60208201905061021f5f8301846101fd565b92915050565b5f80fd5b610232816101f4565b811461023c575f80fd5b50565b5f8135905061024d81610229565b92915050565b5f6020828403121561026857610267610225565b5b5f6102758482850161023f565b91505092915050565b5f8115159050919050565b6102928161027e565b82525050565b5f6020820190506102ab5f830184610289565b92915050565b7f4e487b71000000000000000000000000000000000000000000000000000000005f52603260045260245ffd5b7f4e487b71000000000000000000000000000000000000000000000000000000005f52601160045260245ffd5b5f610315826101f4565b91507fffffffffffffffffffffffffffffffffffffffffffffffffffffffffffffffff8203610347576103466102de565b5b600182019050919050565b7f4e487b71000000000000000000000000000000000000000000000000000000005f52601260045260245ffd5b5f610389826101f4565b9150610394836101f4565b9250826103a4576103a3610352565b5b82820690509291505056fea264697066735822122084c42f5ea3ea25de33abd84a8cd076b5d3b7f13c52c463962a186a7aaf21639b64736f6c634300081a0033",
					"opcodes": "PUSH1 0x80 PUSH1 0x40 MSTORE PUSH1 0x40 MLOAD DUP1 PUSH2 0x140 ADD PUSH1 0x40 MSTORE DUP1 PUSH1 0x1 PUSH1 0xFF AND DUP2 MSTORE PUSH1 0x20 ADD PUSH1 0x2 PUSH1 0xFF AND DUP2 MSTORE PUSH1 0x20 ADD PUSH1 0x3 PUSH1 0xFF AND DUP2 MSTORE PUSH1 0x20 ADD PUSH1 0x4 PUSH1 0xFF AND DUP2 MSTORE PUSH1 0x20 ADD PUSH1 0x5 PUSH1 0xFF AND DUP2 MSTORE PUSH1 0x20 ADD PUSH1 0x6 PUSH1 0xFF AND DUP2 MSTORE PUSH1 0x20 ADD PUSH1 0x7 PUSH1 0xFF AND DUP2 MSTORE PUSH1 0x20 ADD PUSH1 0x8 PUSH1 0xFF AND DUP2 MSTORE PUSH1 0x20 ADD PUSH1 0x9 PUSH1 0xFF AND DUP2 MSTORE PUSH1 0x20 ADD PUSH1 0xA PUSH1 0xFF AND DUP2 MSTORE POP PUSH0 SWAP1 PUSH1 0xA PUSH2 0x81 SWAP3 SWAP2 SWAP1 PUSH2 0xD3 JUMP JUMPDEST POP CALLVALUE DUP1 ISZERO PUSH2 0x8D JUMPI PUSH0 DUP1 REVERT JUMPDEST POP CALLER PUSH1 0x1 PUSH0 PUSH2 0x100 EXP DUP2 SLOAD DUP2 PUSH20 0xFFFFFFFFFFFFFFFFFFFFFFFFFFFFFFFFFFFFFFFF MUL NOT AND SWAP1 DUP4 PUSH20 0xFFFFFFFFFFFFFFFFFFFFFFFFFFFFFFFFFFFFFFFF AND MUL OR SWAP1 SSTORE POP PUSH2 0x13E JUMP JUMPDEST DUP3 DUP1 SLOAD DUP3 DUP3 SSTORE SWAP1 PUSH0 MSTORE PUSH1 0x20 PUSH0 KECCAK256 SWAP1 DUP2 ADD SWAP3 DUP3 ISZERO PUSH2 0x112 JUMPI SWAP2 PUSH1 0x20 MUL DUP3 ADD JUMPDEST DUP3 DUP2 GT ISZERO PUSH2 0x111 JUMPI DUP3 MLOAD DUP3 SWAP1 PUSH1 0xFF AND SWAP1 SSTORE SWAP2 PUSH1 0x20 ADD SWAP2 SWAP1 PUSH1 0x1 ADD SWAP1 PUSH2 0xF1 JUMP JUMPDEST JUMPDEST POP SWAP1 POP PUSH2 0x11F SWAP2 SWAP1 PUSH2 0x123 JUMP JUMPDEST POP SWAP1 JUMP JUMPDEST JUMPDEST DUP1 DUP3 GT ISZERO PUSH2 0x13A JUMPI PUSH0 DUP2 PUSH0 SWAP1 SSTORE POP PUSH1 0x1 ADD PUSH2 0x124 JUMP JUMPDEST POP SWAP1 JUMP JUMPDEST PUSH2 0x3E5 DUP1 PUSH2 0x14B PUSH0 CODECOPY PUSH0 RETURN INVALID PUSH1 0x80 PUSH1 0x40 MSTORE CALLVALUE DUP1 ISZERO PUSH2 0xF JUMPI PUSH0 DUP1 REVERT JUMPDEST POP PUSH1 0x4 CALLDATASIZE LT PUSH2 0x4A JUMPI PUSH0 CALLDATALOAD PUSH1 0xE0 SHR DUP1 PUSH4 0x9DCCCF04 EQ PUSH2 0x4E JUMPI DUP1 PUSH4 0xD39FA233 EQ PUSH2 0x6C JUMPI DUP1 PUSH4 0xD82FF142 EQ PUSH2 0x9C JUMPI DUP1 PUSH4 0xE5054C69 EQ PUSH2 0xBA JUMPI JUMPDEST PUSH0 DUP1 REVERT JUMPDEST PUSH2 0x56 PUSH2 0xEA JUMP JUMPDEST PUSH1 0x40 MLOAD PUSH2 0x63 SWAP2 SWAP1 PUSH2 0x20C JUMP JUMPDEST PUSH1 0x40 MLOAD DUP1 SWAP2 SUB SWAP1 RETURN JUMPDEST PUSH2 0x86 PUSH1 0x4 DUP1 CALLDATASIZE SUB DUP2 ADD SWAP1 PUSH2 0x81 SWAP2 SWAP1 PUSH2 0x253 JUMP JUMPDEST PUSH2 0x14A JUMP JUMPDEST PUSH1 0x40 MLOAD PUSH2 0x93 SWAP2 SWAP1 PUSH2 0x20C JUMP JUMPDEST PUSH1 0x40 MLOAD DUP1 SWAP2 SUB SWAP1 RETURN JUMPDEST PUSH2 0xA4 PUSH2 0x169 JUMP JUMPDEST PUSH1 0x40 MLOAD PUSH2 0xB1 SWAP2 SWAP1 PUSH2 0x298 JUMP JUMPDEST PUSH1 0x40 MLOAD DUP1 SWAP2 SUB SWAP1 RETURN JUMPDEST PUSH2 0xD4 PUSH1 0x4 DUP1 CALLDATASIZE SUB DUP2 ADD SWAP1 PUSH2 0xCF SWAP2 SWAP1 PUSH2 0x253 JUMP JUMPDEST PUSH2 0x1CE JUMP JUMPDEST PUSH1 0x40 MLOAD PUSH2 0xE1 SWAP2 SWAP1 PUSH2 0x298 JUMP JUMPDEST PUSH1 0x40 MLOAD DUP1 SWAP2 SUB SWAP1 RETURN JUMPDEST PUSH0 DUP1 PUSH0 SWAP1 POP PUSH0 JUMPDEST PUSH0 DUP1 SLOAD SWAP1 POP DUP2 LT ISZERO PUSH2 0x142 JUMPI PUSH2 0x121 PUSH0 DUP3 DUP2 SLOAD DUP2 LT PUSH2 0x113 JUMPI PUSH2 0x112 PUSH2 0x2B1 JUMP JUMPDEST JUMPDEST SWAP1 PUSH0 MSTORE PUSH1 0x20 PUSH0 KECCAK256 ADD SLOAD PUSH2 0x1CE JUMP JUMPDEST ISZERO PUSH2 0x135 JUMPI DUP2 DUP1 PUSH2 0x131 SWAP1 PUSH2 0x30B JUMP JUMPDEST SWAP3 POP POP JUMPDEST DUP1 DUP1 PUSH1 0x1 ADD SWAP2 POP POP PUSH2 0xF1 JUMP JUMPDEST POP DUP1 SWAP2 POP POP SWAP1 JUMP JUMPDEST PUSH0 DUP2 DUP2 SLOAD DUP2 LT PUSH2 0x158 JUMPI PUSH0 DUP1 REVERT JUMPDEST SWAP1 PUSH0 MSTORE PUSH1 0x20 PUSH0 KECCAK256 ADD PUSH0 SWAP2 POP SWAP1 POP SLOAD DUP2 JUMP JUMPDEST PUSH0 PUSH1 0x1 PUSH0 SWAP1 SLOAD SWAP1 PUSH2 0x100 EXP SWAP1 DIV PUSH20 0xFFFFFFFFFFFFFFFFFFFFFFFFFFFFFFFFFFFFFFFF AND PUSH20 0xFFFFFFFFFFFFFFFFFFFFFFFFFFFFFFFFFFFFFFFF AND CALLER PUSH20 0xFFFFFFFFFFFFFFFFFFFFFFFFFFFFFFFFFFFFFFFF AND SUB PUSH2 0x1C7 JUMPI PUSH1 0x1 SWAP1 POP PUSH2 0x1CB JUMP JUMPDEST PUSH0 SWAP1 POP JUMPDEST SWAP1 JUMP JUMPDEST PUSH0 DUP1 PUSH1 0x2 DUP4 PUSH2 0x1DD SWAP2 SWAP1 PUSH2 0x37F JUMP JUMPDEST SUB PUSH2 0x1EB JUMPI PUSH1 0x1 SWAP1 POP PUSH2 0x1EF JUMP JUMPDEST PUSH0 SWAP1 POP JUMPDEST SWAP2 SWAP1 POP JUMP JUMPDEST PUSH0 DUP2 SWAP1 POP SWAP2 SWAP1 POP JUMP JUMPDEST PUSH2 0x206 DUP2 PUSH2 0x1F4 JUMP JUMPDEST DUP3 MSTORE POP POP JUMP JUMPDEST PUSH0 PUSH1 0x20 DUP3 ADD SWAP1 POP PUSH2 0x21F PUSH0 DUP4 ADD DUP5 PUSH2 0x1FD JUMP JUMPDEST SWAP3 SWAP2 POP POP JUMP JUMPDEST PUSH0 DUP1 REVERT JUMPDEST PUSH2 0x232 DUP2 PUSH2 0x1F4 JUMP JUMPDEST DUP2 EQ PUSH2 0x23C JUMPI PUSH0 DUP1 REVERT JUMPDEST POP JUMP JUMPDEST PUSH0 DUP2 CALLDATALOAD SWAP1 POP PUSH2 0x24D DUP2 PUSH2 0x229 JUMP JUMPDEST SWAP3 SWAP2 POP POP JUMP JUMPDEST PUSH0 PUSH1 0x20 DUP3 DUP5 SUB SLT ISZERO PUSH2 0x268 JUMPI PUSH2 0x267 PUSH2 0x225 JUMP JUMPDEST JUMPDEST PUSH0 PUSH2 0x275 DUP5 DUP3 DUP6 ADD PUSH2 0x23F JUMP JUMPDEST SWAP2 POP POP SWAP3 SWAP2 POP POP JUMP JUMPDEST PUSH0 DUP2 ISZERO ISZERO SWAP1 POP SWAP2 SWAP1 POP JUMP JUMPDEST PUSH2 0x292 DUP2 PUSH2 0x27E JUMP JUMPDEST DUP3 MSTORE POP POP JUMP JUMPDEST PUSH0 PUSH1 0x20 DUP3 ADD SWAP1 POP PUSH2 0x2AB PUSH0 DUP4 ADD DUP5 PUSH2 0x289 JUMP JUMPDEST SWAP3 SWAP2 POP POP JUMP JUMPDEST PUSH32 0x4E487B7100000000000000000000000000000000000000000000000000000000 PUSH0 MSTORE PUSH1 0x32 PUSH1 0x4 MSTORE PUSH1 0x24 PUSH0 REVERT JUMPDEST PUSH32 0x4E487B7100000000000000000000000000000000000000000000000000000000 PUSH0 MSTORE PUSH1 0x11 PUSH1 0x4 MSTORE PUSH1 0x24 PUSH0 REVERT JUMPDEST PUSH0 PUSH2 0x315 DUP3 PUSH2 0x1F4 JUMP JUMPDEST SWAP2 POP PUSH32 0xFFFFFFFFFFFFFFFFFFFFFFFFFFFFFFFFFFFFFFFFFFFFFFFFFFFFFFFFFFFFFFFF DUP3 SUB PUSH2 0x347 JUMPI PUSH2 0x346 PUSH2 0x2DE JUMP JUMPDEST JUMPDEST PUSH1 0x1 DUP3 ADD SWAP1 POP SWAP2 SWAP1 POP JUMP JUMPDEST PUSH32 0x4E487B7100000000000000000000000000000000000000000000000000000000 PUSH0 MSTORE PUSH1 0x12 PUSH1 0x4 MSTORE PUSH1 0x24 PUSH0 REVERT JUMPDEST PUSH0 PUSH2 0x389 DUP3 PUSH2 0x1F4 JUMP JUMPDEST SWAP2 POP PUSH2 0x394 DUP4 PUSH2 0x1F4 JUMP JUMPDEST SWAP3 POP DUP3 PUSH2 0x3A4 JUMPI PUSH2 0x3A3 PUSH2 0x352 JUMP JUMPDEST JUMPDEST DUP3 DUP3 MOD SWAP1 POP SWAP3 SWAP2 POP POP JUMP INVALID LOG2 PUSH5 0x6970667358 0x22 SLT KECCAK256 DUP5 0xC4 0x2F MCOPY LOG3 0xEA 0x25 0xDE CALLER 0xAB 0xD8 BLOBBASEFEE DUP13 0xD0 PUSH23 0xB5D3B7F13C52C463962A186A7AAF21639B64736F6C6343 STOP ADDMOD BYTE STOP CALLER "
				},
				"gasEstimates": {
					"creation": {
						"codeDepositCost": "199400",
						"executionCost": "infinite",
						"totalCost": "infinite"
					},
					"external": {
						"checkIsOwner()": "2540",
						"countEvenNumber()": "infinite",
						"isEvenNumber(uint256)": "infinite",
						"numbers(uint256)": "infinite"
					}
				},
				"methodIdentifiers": {
					"checkIsOwner()": "d82ff142",
					"countEvenNumber()": "9dcccf04",
					"isEvenNumber(uint256)": "e5054c69",
					"numbers(uint256)": "d39fa233"
				}
			},
			"storageLayout": {
				"storage": [
					{
						"astId": 15,
						"contract": "contracts/MyContract.sol:MyContract",
						"label": "numbers",
						"offset": 0,
						"slot": "0",
						"type": "t_array(t_uint256)dyn_storage"
					},
					{
						"astId": 17,
						"contract": "contracts/MyContract.sol:MyContract",
						"label": "owner",
						"offset": 0,
						"slot": "1",
						"type": "t_address"
					}
				],
				"types": {
					"t_address": {
						"encoding": "inplace",
						"label": "address",
						"numberOfBytes": "20"
					},
					"t_array(t_uint256)dyn_storage": {
						"base": "t_uint256",
						"encoding": "dynamic_array",
						"label": "uint256[]",
						"numberOfBytes": "32"
					},
					"t_uint256": {
						"encoding": "inplace",
						"label": "uint256",
						"numberOfBytes": "32"
					}
				}
			},
			"userdoc": {
				"kind": "user",
				"methods": {},
				"version": 1
			}
		}
	}
}